:020000040800F2
:1000000000000120CD260008212500082325000836
:1000100025250008272500082925000800000000E4
:1000200000000000000000000000000071BE000899
:100030002B2500080000000011BF000855BF000874
:1000400015270008152700081527000815270008A0
:100050001527000815270008152700081527000890
:100060001527000815270008152700081527000880
:1000700015270008152700086D2500082D25000804
:100080001527000815270008152700081527000860
:100090003D2500081527000815270008152700082A
:1000A000152700084D25000815270008152700080A
:1000B0001527000815270008152700081527000830
:1000C0001527000815270008152700081527000820
:1000D0001527000815270008152700081527000810
:1000E0001527000815270008152700081527000800
:1000F00015270008152700081527000815270008F0
:10010000152700085D250008152700081527000899
:1001100015270008152700081527000815270008CF
:1001200015270008152700081527000815270008BF
:1001300000000000000000000000000000000000BF
:1001400000000000000000000000000000000000AF
:10015000000000000000000000000000000000009F
:10016000000000000000000000000000000000008F
:10017000000000000000000000000000000000007F
:10018000000000000000000000000000000000006F
:10019000000000000000000000000000000000005F
:1001A000000000000000000000000000000000004F
:1001B000000000000000000000000000000000003F
:1001C000000000000000000000000000000000002F
:1001D000000000000000000000000000000000001F
:0401E0005FF8E0F1F3
:1001F0004FF0FF0C1CEAD0521EBF1CEAD15392EA0A
:100200000C0F93EA0C0F6FD01A4480EA010C4002E5
:1002100018BF5FEA41211ED04FF0006343EA50103F
:1002200043EA5111A0FB01310CF00040B1F5000F81
:100230003EBF490041EAD3715B0040EA010062F130
:100240007F02FD2A1DD8B3F1004F40EBC25008BF1A
:1002500020F00100704790F0000F0CF0004C08BF38
:1002600049024CEA502040EA51207F3AC2BFD2F105
:10027000FF0340EAC250704740F400004FF0000313
:10028000013A5DDC12F1190FDCBF00F0004070474D
:10029000C2F10002410021FA02F1C2F1200200FA8B
:1002A00002FC5FEA310040F1000053EA4C0308BF52
:1002B00020EADC70704792F0000F00F0004C02BFA3
:1002C000400010F4000F013AF9D040EA0C0093F01E
:1002D000000F01F0004C02BF490011F4000F013B78
:1002E000F9D041EA0C018FE70CEAD15392EA0C0FE6
:1002F00018BF93EA0C0F0AD030F0004C18BF31F051
:10030000004CD8D180EA010000F00040704790F026
:10031000000F17BF90F0004F084691F0000F91F0CA
:10032000004F14D092EA0C0F01D142020FD193EA90
:100330000C0F03D14B0218BF084608D180EA010018
:1003400000F0004040F0FE4040F40000704740F0F4
:10035000FE4040F4400070474FEA4002B2F1FE4FC9
:100360000FD34FF09E03B3EB12620DD94FEA002377
:1003700043F0004310F0004F23FA02F018BF404250
:1003800070474FF00000704712F1610F01D1420237
:1003900005D110F0004008BF6FF0004070474FF0EB
:1003A00000007047844641EA000313F0030349D17B
:1003B000403A23D30B6803604B6843608B688360CB
:1003C000CB68C3600B6903614B6943618B698361CF
:1003D000CB69C3610B6A03624B6A43628B6A8362B7
:1003E000CB6AC3620B6B03634B6B43638B6B83639F
:1003F000CB6BC36340304031403ADBD230320BD359
:100400000B6803604B6843608B688360CB68C36094
:1004100010301031103AF3D20C3205D351F8043BAE
:1004200040F8043B043AF9D2043208D0D2071CBF8A
:1004300011F8013B00F8013B01D30B8803806046B3
:10044000704700BF082A13D38B07B1D010F0030305
:10045000AED0C3F10403D21ADB071CBF11F8013B75
:1004600000F8013BA4D331F8023B20F8023B9FE7A0
:10047000043AD9D3013A11F8013B00F8013BF9D213
:100480000B7803704B7843708B78837060467047AD
:1004900081F0004102E000BF83F0004330B54FEA35
:1004A00041044FEA430594EA050F08BF90EA020FA2
:1004B0001FBF54EA000C55EA020C7FEA645C7FEA35
:1004C000655C00F0E2804FEA5454D4EB5555B8BF58
:1004D0006D420CDD2C4480EA020281EA030382EAC9
:1004E000000083EA010180EA020281EA0303362D5B
:1004F00088BF30BD11F0004F4FEA01314FF4801C2E
:100500004CEA113102D0404261EB410113F0004F3F
:100510004FEA03334CEA133302D0524263EB4303F6
:1005200094EA050F00F0A780A4F10104D5F1200E94
:100530000DDB02FA0EFC22FA05F2801841F10001EF
:1005400003FA0EF2801843FA05F359410EE0A5F1C3
:1005500020050EF1200E012A03FA0EFC28BF4CF0F4
:10056000020C43FA05F3C01851EBE37101F00045AA
:1005700007D54FF0000EDCF1000C7EEB00006EEBB7
:100580000101B1F5801F1BD3B1F5001F0CD3490841
:100590005FEA30004FEA3C0C04F101044FEA445298
:1005A00012F5800F80F09A80BCF1004F08BF5FEA1F
:1005B000500C50F1000041EB045141EA050130BDFF
:1005C0005FEA4C0C404141EB0101013C28BFB1F511
:1005D000801FE9D291F0000F04BF01460020B1FA5C
:1005E00081F308BF2033A3F10B03B3F120020CDA2F
:1005F0000C3208DD02F1140CC2F10C0201FA0CF00D
:1006000021FA02F10CE002F11402D8BFC2F1200C71
:1006100001FA02F120FA0CFCDCBF41EA0C01904027
:10062000E41AA2BF01EB0451294330BD6FEA040470
:100630001F3C1CDA0C340EDC04F11404C4F120025B
:1006400020FA04F001FA02F340EA030021FA04F36D
:1006500045EA030130BDC4F10C04C4F1200220FAC4
:1006600002F001FA04F340EA0300294630BD21FA02
:1006700004F0294630BD94F0000F83F4801306BFC8
:1006800081F480110134013D4EE77FEA645C18BFBC
:100690007FEA655C29D094EA050F08BF90EA020F53
:1006A00005D054EA000C04BF1946104630BD91EA4B
:1006B000030F1EBF0021002030BD5FEA545C05D14E
:1006C0004000494128BF41F0004130BD14F580048D
:1006D0003CBF01F5801130BD01F0004545F0FE4101
:1006E00041F470014FF0000030BD7FEA645C1ABF36
:1006F000194610467FEA655C1CBF0B46024650EA6D
:10070000013406BF52EA033591EA030F41F4002198
:1007100030BD00BF90F0000F04BF0021704730B51E
:100720004FF4806404F132044FF000054FF00001F3
:1007300050E700BF90F0000F04BF0021704730B5B4
:100740004FF4806404F1320410F0004548BF404289
:100750004FF000013EE700BF42004FEAE2014FEADE
:1007600031014FEA02701FBF12F07F4393F07F4FB9
:1007700081F06051704732F07F4208BF704793F0BC
:100780007F4F04BF41F40021704730B54FF46074CF
:1007900001F0004521F000411CE700BF50EA0102D2
:1007A00008BF704730B54FF000050AE050EA01027B
:1007B00008BF704730B511F0004502D5404261EBEB
:1007C00041014FF4806404F132045FEA915C3FF42C
:1007D000D8AE4FF003025FEADC0C18BF03325FEAC9
:1007E000DC0C18BF033202EBDC02C2F1200300FA7A
:1007F00003FC20FA02F001FA03FE40EA0E0021FA9F
:1008000002F11444BDE600BF70B54FF0FF0C4CF48C
:10081000E06C1CEA11541DBF1CEA135594EA0C0F3E
:1008200095EA0C0F00F0DEF82C4481EA030621EA79
:100830004C5123EA4C5350EA013518BF52EA0335B4
:1008400041F4801143F4801338D0A0FB02CE4FF066
:100850000005E1FB02E506F00042E0FB03E54FF096
:100860000006E1FB03569CF0000F18BF4EF0010E8E
:10087000A4F1FF04B6F5007F64F5407404D25FEA8A
:100880004E0E6D4146EB060642EAC62141EA55513D
:100890004FEAC52040EA5E504FEACE2EB4F1FD0C7F
:1008A00088BFBCF5E06F1ED8BEF1004F08BF5FEAFD
:1008B000500E50F1000041EB045170BD06F00046AF
:1008C00046EA010140EA020081EA0301B4EB5C045C
:1008D000C2BFD4EB0C0541EA045170BD41F4801154
:1008E0004FF0000E013C00F3AB8014F1360FDEBF79
:1008F000002001F0004170BDC4F10004203C35DA55
:100900000C341BDC04F11404C4F1200500FA05F3D7
:1009100020FA04F001FA05F240EA020001F0004278
:1009200021F0004110EBD37021FA04F642EB0601EE
:100930005EEA430E08BF20EAD37070BDC4F10C0418
:10094000C4F1200500FA04F320FA05F001FA04F2DC
:1009500040EA020001F0004110EBD37041F10001C8
:100960005EEA430E08BF20EAD37070BDC4F12005D3
:1009700000FA05F24EEA020E20FA04F301FA05F23B
:1009800043EA020321FA04F001F0004121FA04F2E3
:1009900020EA020000EBD3705EEA430E08BF20EAB3
:1009A000D37070BD94F0000F0FD101F000464000ED
:1009B00041EB010111F4801F08BF013CF7D041EA6F
:1009C000060195F0000F18BF704703F00046520073
:1009D00043EB030313F4801F08BF013DF7D043EA44
:1009E0000603704794EA0C0F0CEA135518BF95EAFA
:1009F0000C0F0CD050EA410618BF52EA4306D1D181
:100A000081EA030101F000414FF0000070BD50EA9F
:100A1000410606BF1046194652EA430619D094EA29
:100A20000C0F02D150EA013613D195EA0C0F05D113
:100A300052EA03361CBF104619460AD181EA030167
:100A400001F0004141F0FE4141F470014FF000001F
:100A500070BD41F0FE4141F4780170BD70B54FF0BA
:100A6000FF0C4CF4E06C1CEA11541DBF1CEA13553A
:100A700094EA0C0F95EA0C0F00F0A7F8A4EB05041C
:100A800081EA030E52EA03354FEA013100F0888013
:100A90004FEA03334FF0805545EA131343EA1263DC
:100AA0004FEA022245EA111545EA10654FEA002691
:100AB0000EF000419D4208BF964244F1FD0404F54A
:100AC000407402D25B084FEA3202B61A65EB0305A6
:100AD0005B084FEA32024FF480104FF4002CB6EB63
:100AE000020E75EB030E22BFB61A754640EA0C00E3
:100AF0005B084FEA3202B6EB020E75EB030E22BF23
:100B0000B61A754640EA5C005B084FEA3202B6EB63
:100B1000020E75EB030E22BFB61A754640EA9C0022
:100B20005B084FEA3202B6EB020E75EB030E22BFF2
:100B3000B61A754640EADC0055EA060E18D04FEAB0
:100B4000051545EA16754FEA06164FEAC30343EA50
:100B500052734FEAC2025FEA1C1CC0D111F4801F1D
:100B60000BD141EA00014FF000004FF0004CB6E716
:100B700011F4801F04BF01430020B4F1FD0C88BFB5
:100B8000BCF5E06F3FF6AFAEB5EB030C04BFB6EBC0
:100B9000020C5FEA500C50F1000041EB045170BDB3
:100BA0000EF0004E4EEA113114EB5C04C2BFD4EBE0
:100BB0000C0541EA045170BD41F480114FF0000E64
:100BC000013C90E645EA060E8DE60CEA135594EAE0
:100BD0000C0F08BF95EA0C0F3FF43BAF94EA0C0FE3
:100BE0000AD150EA01347FF434AF95EA0C0F7FF458
:100BF00025AF104619462CE795EA0C0F06D152EAAC
:100C000003353FF4FDAE1046194622E750EA41068F
:100C100018BF52EA43067FF4C5AE50EA41047FF4A0
:100C20000DAF52EA43057FF4EBAE12E74FF0FF3C05
:100C300006E000BF4FF0010C02E000BF4FF0010CD6
:100C40004DF804CD4FEA410C7FEA6C5C4FEA430C4F
:100C500018BF7FEA6C5C1BD001B050EA410C0CBF9E
:100C600052EA430C91EA030F02BF90EA020F002000
:100C7000704710F1000F91EA030F58BF994208BF67
:100C800090422CBFD8176FEAE37040F00100704724
:100C90004FEA410C7FEA6C5C02D150EA013C07D17B
:100CA0004FEA430C7FEA6C5CD6D152EA033CD3D0C6
:100CB0005DF8040B704700BF8446104662468C46C0
:100CC0001946634600E000BF01B5FFF7B7FF0028F3
:100CD00048BF10F1000F01BD4DF808EDFFF7F4FF1C
:100CE0000CBF012000205DF808FB00BF4DF808EDA7
:100CF000FFF7EAFF34BF012000205DF808FB00BFCA
:100D00004DF808EDFFF7E0FF94BF012000205DF8EB
:100D100008FB00BF4DF808EDFFF7CEFF94BF0120A0
:100D200000205DF808FB00BF4DF808EDFFF7C4FF99
:100D300034BF012000205DF808FB00BF4FEA410CE2
:100D40007FEA6C5C02D150EA013C0AD14FEA430CC5
:100D50007FEA6C5C02D152EA033C02D14FF0000002
:100D600070474FF0010070474FEA410212F5001240
:100D700015D211D56FF47873B3EB625212D94FEAE2
:100D8000C12343F0004343EA505311F0004F23FACC
:100D900002F018BF404270474FF00000704750EA21
:100DA000013005D111F0004008BF6FF000407047DE
:100DB0004FF00000704700BF0348044B834202D04D
:100DC000034B03B1184770474C0800204C08002023
:100DD000000000000548064B1B1AD90F01EBA301C8
:100DE000491002D0034B03B1184770474C0800204C
:100DF0004C0800200000000010B5064C237843B9D1
:100E0000FFF7DAFF044B13B10448AFF3008001236E
:100E1000237010BD4C08002000000000685001083D
:100E200008B5054B1BB105490548AFF30080BDE887
:100E30000840FFF7CFBF00BF0000000050080020AF
:100E40006850010830B585B005460C46C1F3002353
:100E500043EA40038DF80C308DF80D100A230093FF
:100E6000022303AA3421044802F070FB10B9034B9B
:100E700023F8154005B030BD9C6B00200000002019
:100E8000F8B5054600210F20FFF7DCFF044608B146
:100E90002046F8BD5E480CF0DFF8C2211920FFF7AC
:100EA000D1FF04460C212F20FFF7CCFF0444E4B20D
:100EB00015F0010622D115F0020529D1002C3AD1F6
:100EC00000210420FFF7BEFF02210720FFF7BAFF31
:100ED000002E38D1002D6DD140211820FFF7B2FF30
:100EE0004C4BD98D41F4E17141F001011720FFF71E
:100EF000A9FF0B213020FFF7A5FFC9E7454B998ECD
:100F000041F4FD711A20FFF79DFF2044C4B2D2E7DF
:100F1000404F798E41F03C011920FFF793FF0444C4
:100F2000E4B2B7F85E1041F030012F20FFF78AFFDE
:100F30000444E4B2C2E738480CF08EF82146374842
:100F40000CF02AF8A4E7334E718921F0080105203E
:100F5000FFF778FF40F2EF110220FFF773FF40F236
:100F6000EF110320FFF76EFF4FF4FD712820FFF70C
:100F700069FF4FF4FD712920FFF764FFB6F8621096
:100F800041F0C0013120FFF75DFF40F2FF110A2060
:100F9000FFF758FF40F2FF110B20FFF753FF4FF40C
:100FA00080712220FFF74EFF4FF480712520FFF75C
:100FB00049FF8FE740F23F110020FFF743FF40F267
:100FC0003F110120FFF73EFF4FF484712020FFF70F
:100FD00039FF00212120FFF735FF00212B20FFF7EB
:100FE00031FF00212C20FFF72DFF4FF4F571152064
:100FF000FFF728FF4FF4F5711620FFF723FF0421B8
:101000001720FFF71FFFF9211420FFF71BFF63E7ED
:10101000B850010800000020D4500108E850010831
:1010200070B5ADF5147D0546014601A80AF0FFFC38
:1010300008B9002417E0064634480CF00DF802E029
:1010400033480CF009F830460DF5147D70BD1A4692
:1010500003F251236B4413F8173C772B1AD0572B0C
:1010600018D00134A4B28CA901A80AF044FD0646A8
:101070000028E5D19DF83932C3B30023632BE6D8AD
:1010800003F514726A4412F8172C2E2ADFD00133AC
:101090009BB2F3E702F252236B4413F8173C612B27
:1010A00001D0412BDDD102F253230DEB030212F8E4
:1010B000173C762B01D0562BD3D104EB8403154E6D
:1010C00006EBC306294630460CF032F930460CF0E8
:1010D0008DF9114B1B8833520DF2392130460CF03B
:1010E0007DF831460D480BF057FFBAE701A80AF02A
:1010F000F1FC064630B9E1B2094B197009480BF012
:101100004BFFA0E708480BF0A7FF9CE7FC50010845
:1011100010510108A008002024510108285101089D
:101120009F0800204451010830510108F0B583B0F8
:101130000C460023019301220146404809F076FF46
:10114000002873D105463E4E01AB4FF4A052314604
:101150003A480AF05EF8B2683A4B9A4261D1B18AD5
:10116000012901D0032957D1354A136903F114002D
:1011700087181258344EB24204D0344EB24201D0D5
:10118000E06103E07A6813441C33E361E6692C4FA5
:10119000F019BA592E4B9A4208D02E480BF05CFF3A
:1011A000B9592D480BF0F8FE042543E02180FA8A56
:1011B0006280BA69C4F81620FA69D200C4F8122015
:1011C0003A8CA2807B8C63834368C4F8063008366F
:1011D000E66122480BF0E0FE618821480BF0DCFE5E
:1011E000D4F816101F480BF0D7FED4F812101E4882
:1011F0000BF0D2FEA1881D480BF0CEFE618B1C487F
:101200000BF0CAFED4F806101A480BF0C5FEE169CF
:1012100019480BF0C1FE0DE018480BF01DFF032527
:1012200008E017480BF018FF022503E015480BF003
:1012300013FF0125284603B0F0BD00BF584600202B
:10124000380A002057415645666163744C4953542F
:10125000646174611052010828520108705101083C
:10126000885101089C510108B0510108C45101087E
:10127000D8510108E8510108FC5101084052010809
:101280006052010874520108F0B583B004460E465E
:10129000AC4B5B889BB2022B3FD0AA4B5B8B9BB2C3
:1012A000102B00F0D180A74B5B8B9BB2182B00F06A
:1012B000E980A44B5B8B9BB2082B00F01181A24FFD
:1012C00001AB4A083946A14809F0A3FF019B5B0026
:1012D00001930025019BAB4240F222814FF09E41D9
:1012E00057F8040BFEF784FFFFF736F8C0F3074307
:1012F00063552A1DA3546A1C030EA3546A1DA354EC
:10130000AA1CC3B2A354AA1DA354EB1CC0F307200C
:10131000E054EB1DE0540835DCE78A4B5B8B9BB255
:10132000102B18D0874B5B8B9BB2182B1AD0854B98
:101330005B8B9BB2082B3FD0824B5B8B9BB2202BED
:101340005AD0804B598B89B281480BF025FE8148D9
:101350000BF082FEE4E001AB0A4601467B4809F04F
:1013600058FFDDE0774B598B89B279480BF014FEBA
:10137000B208754D01AB02EB42022946734809F0F1
:1013800048FF019B744AA2FB03235B089B00019367
:1013900029460023019A9A4240F2C2800A78E25418
:1013A0005A1C4878A0549A1C8878A054DA1C002053
:1013B000A05404330331EDE7624B598B89B2644882
:1013C0000BF0EAFD604D01AB720829465F4809F059
:1013D00020FF019B5B0001932946002308E00022C7
:1013E000E25411F8012B581C82F08002225402337F
:1013F000019A9A42F3D893E0524B598B89B25448E0
:101400000BF0CAFD504F01AB324639464F4809F048
:1014100000FF002514E04FF09E4157F8040BFEF743
:10142000E7FEFEF799FFC0F3074363556B1C020EFE
:10143000E254AB1CE054EB1CC0F30720E05404352D
:10144000019BAB42E7D86BE03F4D01AB4A08294610
:101450003E4809F0DEFE019B5B0001932946002314
:101460000CE00A78E2545A1C4878A0549A1C087878
:10147000A054DA1C4878A05404330231019A9A42ED
:10148000EFD84DE0CA08304D01AB02EB42022946CD
:101490002E4809F0BEFE019B2F4AA2FB03235B08E6
:1014A000DB00019329460023019A9A4238D94A78F1
:1014B000E2545A1C8878A054981C00222254D81C4C
:1014C0000D782554181D4D782554581D8D782554B8
:1014D000981D2254DA1D11F8030BA0540833E3E7DA
:1014E000194D01AB8A082946184809F092FE019B64
:1014F0009B000193294600230FE00020E0540A7866
:101500005D1C82F0800262559A1CA05411F8012BD8
:10151000D81C82F0800222540433019A9A42ECD8FB
:10152000019B9E4208D809480AF086F8019803B04A
:10153000F0BD0022E2540133019AB21A9A42F8D85F
:10154000F1E700BF38460020380A00205846002046
:1015500098520108B0520108ABAAAAAA074A5269D8
:1015600082420AD008B503460448436102F0D2F82B
:1015700000B908BD00F088FEFBE77047346C00201E
:10158000134B5B68834222D010B584B004461048E8
:10159000446002F0BFF8A0B90023009301930293C6
:1015A00003934FF400430093022301930123039319
:1015B000B4F5407F08D06946064801F035FC04B018
:1015C00010BD00F061FEE7E700230193F3E77047E9
:1015D000346C0020000C014038B56D4B1B78DBB239
:1015E000022B05D06A4B00221A70FF24204638BD1A
:1015F00005460120FFF744FC044666492846FFF7EC
:1016000095FD044414F0FF042DD1634A0123C2F870
:1016100094310023C2F88431604A02211170604A7B
:10162000137029465F480BF0B7FC5A4DD5F80620D9
:101630005D4B1A604FF40070FFF7A2FFD5F816005B
:10164000FFF78CFFE96959480AF069F8584D4FF4E3
:1016500020512846FFF718FE4FF4A052294655485E
:1016600002F098F944E051480AF045F8484B00224E
:101670001A70BBE74A4B1B78DBB2012B12D0484BE8
:101680001B78DBB2022B42D14FF4A0514A48FFF73E
:10169000FBFD454A1368A3F5A0531360404B00229D
:1016A0001A7034E04FF4A0514148FFF7EDFD3E4A77
:1016B0001368A3F5A0531360394B00221A7026E07B
:1016C000334B1B78DBB2042B26D13A4802F04EFA9A
:1016D000324B04221A70304B0022C3F894210122AD
:1016E000C3F8842118E02A4B1B78DBB2062B2BD0E1
:1016F0002A4B1B78DBB2062B2AD0284B1B78DBB297
:10170000072B25D0254B1B78DBB2022BB2D0234B05
:101710001B78DBB2022BD3D0204B1B78DBB2042B1F
:10172000E1D11B4B1B78DBB2052BDCD1214802F049
:1017300042FA1A4B02221A70174B0122C3F8942165
:101740000022C3F88421CEE7144B06221A70CFE79B
:10175000184802F05EFA0E4B1B78DBB2072B0CD058
:10176000124809F0C8FF0A4B00221A700A4B0122E6
:10177000C3F89421C3F8842138E70B4B1A684FF65D
:10178000FF73C2F34F020A490A4802F059F8E7E72B
:10179000350A00203846002000802142340A00200B
:1017A000360A0020BC520108300A002058460020AA
:1017B000381E0020346C00203832002038B50A462C
:1017C00000213B4B3B4C1C605960A4F57004A4F213
:1017D000FB749C6004F15B4404F5F11404F60F44BF
:1017E000DC6010241C6101259D820225DD829A6146
:1017F0009A69AA40DA6104221A845C842E4A5A62E9
:10180000996200284AD002462C4C2D4920460BF004
:101810002BFC0A2221462B4809F008FC014600282F
:1018200040D1294B2C222249264809F0E8FD0446E4
:10183000014626480BF0B0FB0AE0234B2C221C4942
:10184000204809F0DCFD0446014620480BF0A4FBCB
:101850002CB11C4809F04FFF18480AF07EF92046C9
:1018600038BD0134A4B2632C1AD8144D224618494D
:1018700028460BF0F9FB294616480BF08DFB062293
:101880002946104809F0D2FB01460828E9D0002873
:10189000D3D011480BF080FB0121E2E70024E2E7FE
:1018A0000C46D5E70C480BF077FB0124D1E700BFCD
:1018B000700800205249464664617461380A00206D
:1018C000085301085846002068080020DC5201082F
:1018D000CC52010828510108F8520108F8B57D4B97
:1018E0001B78DBB2032B05D07A4B00221A70EE2452
:1018F0002046F8BD06460D460220FFF7C1FA044611
:1019000029463046FFF75AFF044414F0FF0403D081
:10191000704B00221A70EBE74FF44070FFF730FE77
:101920002846FFF71BFE6C4B03221A7000256B4BF9
:101930001D706B4B1D604FF4A0526A496A4802F05B
:1019400097F86A4B0122C3F89421C3F8805158E0FC
:10195000624B1B78DBB2012B16D0604B1B78DBB2DD
:10196000022B5DD1624D2B464FF4A0526149624873
:1019700009F045FD04462968594A13680B44136071
:10198000564B00221A704BE0594D2B464FF4A05293
:101990005449594809F033FD04462968504A1368F0
:1019A0000B4413604D4B00221A7039E0494B1B78F1
:1019B000DBB2042B39D14C4802F0D8F8464B042254
:1019C0001A704A4B0022C3F894210122C3F88021E7
:1019D0002BE0404B1B78DBB2052B2BD1424802F0A9
:1019E000EAF83D4B03221A70404B0122C3F89421C0
:1019F0000022C3F880211DE0364B1B78DBB2072B99
:101A000021D0354B1B78DBB2062B23D0324B1B7811
:101A1000DBB2072B1ED0304B1B78DBB2032B97D0E9
:101A20002D4B1B78DBB2032BC0D02B4B1B78DBB2CA
:101A3000042BCED0274B1B78DBB2062BDCD1264BF8
:101A400006221A70D8E7244B07221A702B48FFF79A
:101A5000E7FAD6E7204B1B78DBB2072B10D02648DD
:101A600009F049FE2044C4B21B4B1B78DBB2062BA5
:101A70002CD01E4B0122C3F89421C3F8802137E7F4
:101A8000194802F0C6F80027124B1F70144B1A6851
:101A900024321B4E72601A68B262196819480BF042
:101AA0007BFA154D284609F0C7FD0444E4B23946D7
:101AB000284609F034FE0444E4B20D4B2C22314692
:101AC000284609F09CFC0444E4B2C8E70E480AF03A
:101AD00044F8CEE79D0800209C080020360A00202C
:101AE0006C080020381E0020346C00200080214249
:101AF000680800203832002058460020185301089A
:101B00007008002020530108380A0020014B0122F0
:101B10001A707047360A0020014B01221A70704774
:101B2000360A002008B5094B1B68B3F5205F03D2C5
:101B3000074B07221A7008BD064B02221A704FF499
:101B4000A052054901F026FFF5E700BF300A00204A
:101B5000340A0020360A0020381E002008B5074B42
:101B600002221A70064B1B78DBB2032B00D008BD93
:101B70004FF4A052034901F07BFFF8E7360A00203A
:101B80009C080020381E002010B53E4B1B7813F037
:101B9000030324D0032B30D03A4B1B78C3F38102CC
:101BA00013F00C0F44D0032A50D0364C94E80700B1
:101BB00000F000F9237803F00C030C2B03D02278FB
:101BC0006FF3830222702F4B1B7803F00303032B68
:101BD00004D02C4B1A786FF301021A7010BD2A4BF7
:101BE000D3F80031012BD7D1264C237843F00303DF
:101BF000237000F0AFFD6060CEE7234BD3F80031D7
:101C0000002BC9D100F0A6FD1E4B5B68C01AB0F5D1
:101C1000487F06D91B4B1A78022161F301021A7022
:101C2000BAE7184B1A78012161F301021A70B3E781
:101C3000164BD3F83431012BB7D1124C237843F033
:101C40000C03237000F086FDA060AEE70F4BD3F8C5
:101C50003431002BA9D100F07DFD0A4B9B68C01ADE
:101C6000B0F5487F06D9074B1A78022161F3830249
:101C70001A709AE7034B1A78012161F383021A70F4
:101C800093E700BF84480020000021420000224268
:101C900000B583B00A4B5A6942F001025A615B6990
:101CA00003F001030193019B002205210F2000F0A6
:101CB000B1FD0F2000F0BEFD03B05DF804FB00BFD6
:101CC0000010024008B50AF035FE0AF011FC064B80
:101CD0001860064B18680AF085FBFFF755FF3221A4
:101CE00001480AF013FDF8E794480020405B00200B
:101CF00008B50AF0FDFB0C4B18600C48FFF790F993
:101D00000B4B187800EB80000A4B03EBC000FFF789
:101D100063FC4FF47A510848FFF7E0FD3221024896
:101D20000AF0F4FCECE700BF9048002034530108AF
:101D30009E080020A00800203C530108034B0360CC
:101D4000034B0B6080231360704700BF984A00204C
:101D50009848002010B58EB0134C0DF11C0CA6460F
:101D6000BEE80F00ACE80F009EE807008CE8070013
:101D7000002107A809F0D3FF0C4B1860EE4604F1D0
:101D80001C0CBCE80F00AEE80F009CE807008EE8D2
:101D900007000021684609F0C2FF054B18600AF0F1
:101DA00053FD0EB010BD00BF80500108986B00209D
:101DB000405B002010B584B004AB03E907009DF838
:101DC000044004F00303012B0AD0022B4ED004F090
:101DD0000C04042C6DD0082C00F0B88004B010BDA9
:101DE0006A4B1B78DBB2032B38D0684B1B78DBB215
:101DF000042B33D0664B1B78DBB2022B0DD0644B27
:101E00001B78DBB2042B08D0614B1B78DBB2072BAD
:101E100003D05F4B1B78002BD9D15E480BF01CF927
:101E20005D4B1B78F3B95D4B1B78013B5A4A13702D
:101E3000574B1B78DBB2022B04D0554B1B78DBB21F
:101E4000042B07D1564B06221A70514B1B78DBB27C
:101E5000062BFAD1524B02221A70B8E7514B0722D7
:101E60001A70BBE7013B4C4A1370E1E7474B1B7804
:101E7000DBB2032B15D0454B1B78B3B1434B1B781A
:101E8000DBB2072B11D0414B1B78DBB2062B0CD0F9
:101E90003E4B1B78DBB2042B99D1424B05221A70C2
:101EA00095E7404B04221A7091E73E4B03221A70CB
:101EB0008DE7364B1B78DBB2032B09D0334B1B78F5
:101EC000DBB2042B04D0314B1B78DBB2072B02D1E1
:101ED000344B06221A702E4B1B78DBB2022B0ED02D
:101EE0002B4B1B78DBB2042B09D0294B1B78DBB2C0
:101EF000072B04D0264B1B78002B7FF46FAF2A48AA
:101F00000BF0AAF8244B1A78244B1B78013B9A4219
:101F100018D00132204B1A701D4B1B78DBB2022BFC
:101F200004D01B4B1B78DBB2042B07D11C4B0622C1
:101F30001A70174B1B78DBB2062BFAD1184B022212
:101F40001A704BE7144B00221A70E5E7104B1B7810
:101F5000DBB2022B11D00E4B1B7893B10C4B1B78CC
:101F6000DBB2072B0DD00A4B1B78DBB2042B7FF4BE
:101F700035AF0B4B05221A7030E7094B04221A705B
:101F80002CE7074B02221A7028E700BF9C080020AC
:101F9000340A0020485301089E0800209F080020B2
:101FA000350A00209D080020545301082DE9F04116
:101FB00088B0002404940594069407942C4B9A69E5
:101FC00042F010029A619A6902F010020092009A9F
:101FD0009A6942F004029A619A6902F0040201923D
:101FE000019A9A6942F008029A619A6902F008021D
:101FF0000292029A9A6942F020029A619B6903F068
:1020000020030393039BDFF86C80012223214046C9
:1020100001F026F8184F01224021384601F020F83F
:102020004FF40053049305940225069504A9134820
:1020300000F0FAFE012604960594069504A91048BE
:1020400000F0F2FE2323049305960694079504A955
:10205000404600F0E9FE4023049305960694079558
:1020600004A9384600F0E0FE08B0BDE8F08100BFEA
:1020700000100240000C014000140140001001401B
:102080000008014008B50B480B4B03600B4B436045
:1020900000238360C3604FF4804202614361836127
:1020A000C361036201F074F900B908BD00F0ECF8F7
:1020B000FBE700BF9C6B002000540040A08601009D
:1020C00010B586B00023029303930493059302682E
:1020D000114B9A4201D006B010BD104CA36943F0D9
:1020E0000803A361A36903F008030093009BC023C6
:1020F0000293122303930323059302A9084800F0D7
:1021000093FEE36943F40013E361E36903F400130E
:102110000193019BDFE700BF005400400010024024
:10212000000C014008B50A480A4B03604FF40072E6
:10213000426000238360C36002614FF47A524261BF
:10214000836101F0E7FA00B908BD00F09DF8FBE7F4
:10215000346C00200038004070B588B00023049330
:102160000593069307930268344B9A4201D008B056
:1021700070BD044603F5EC33DA6942F48042DA615B
:10218000DA6902F480420192019A9A6942F00802E7
:102190009A619A6902F008020292029A9A6942F0E0
:1021A00010029A619B6903F010030393039B4FF4A1
:1021B00030430493022605960125079504A920487B
:1021C00000F032FE402304930596079504A91D48AC
:1021D00000F02AFE1C481D4B0360102343600023BF
:1021E00083608022C2604FF4807202614FF480628B
:1021F00042618361C36100F041FBC8B9124BE362E5
:102200005C621348134B03600023436083608022A9
:10221000C2604FF4807202614FF480624261836158
:10222000C36100F02BFB30B9094B23635C629EE76E
:1022300000F02AF8E2E700F027F8F5E70038004060
:10224000000C014000100140F06B002058000240DB
:10225000706C00204400024010B514464FF6FF7326
:1022600092B2024804F06CFB204610BD846D002041
:1022700008B50268034B9A4200D008BD00F05EFA30
:10228000FBE700BF002C014072B6FEE700B597B037
:10229000282200210CA80AF051FF0023079308937D
:1022A00009930A930B930193029303930493059369
:1022B000069301220C924FF480330D931092022268
:1022C000139214934FF4E01315930CA802F0A8FD99
:1022D000C8B90F23079302210891002309934FF4F3
:1022E00080620A920B9307A802F0CCFF68B914230E
:1022F000019300230493069301A803F0BDF830B9BD
:1023000017B05DF804FBFFF7BFFFFFF7BDFFFFF756
:10231000BBFF000008B500F0FFF9FFF7B7FFFFF7BC
:1023200045FEFFF7B5FC00F029F800F079F9FFF75A
:10233000A9FEFFF7F7FE05F07BFE002205210E2027
:1023400000F068FA0E2000F075FA002208490948EA
:1023500008F03CFE014608480AF01EFE4FF47A7071
:1023600000F0FEF9FFF7F6FC09F0D4FCFEE700BF31
:1023700000700020D06D002074530108064B074AFE
:102380001A6000225A609A60DA601A614FF4804243
:102390005A6102229A617047B46C002000800140AB
:1023A00030B589B000230493059306930793026820
:1023B0001E4B9A4201D009B030BD03F510435A6953
:1023C00042F480625A615A6902F480620192019A71
:1023D0009A6942F010029A619A6902F01002029220
:1023E000029A9A6942F020029A619B6903F02003E5
:1023F0000393039B4FF4F85304930225059503249C
:10240000079404A90A4800F00FFD042304930595DE
:10241000079404A9074800F007FD00220621312097
:1024200000F0F8F9312000F005FAC4E7008001401F
:10243000001001400014014000B583B0114B9A69AF
:1024400042F001029A619A6902F001020092009A38
:10245000DA6942F08052DA61DB6903F0805301935C
:10246000019B00220F216FF0010000F0D3F9064A12
:10247000536823F0E06343F00073536003B05DF8EA
:1024800004FB00BF001002400000014030B589B0DD
:1024900004461E4B9A6942F400629A619B6903F4F8
:1024A00000630193019B02A903A802F0C7FF02F099
:1024B000B5FF174AA2FB00239B0C013B1548164AA7
:1024C000026040F2E732C260436000230361836030
:1024D000836104F04BF9054610B1284609B030BDC0
:1024E0000C4803F0F9FF05460028F6D1192000F04A
:1024F000A1F90F2C01D90125EFE70022214619206F
:1025000000F088F9054B1C60E7E700BF00100240AF
:1025100083DE1B43386D0020002C01407800002032
:10252000FEE7FEE7FEE7FEE7FEE7704708B5024874
:1025300000F004FB08BD00BFF06B002008B50248A6
:1025400002F01AFA08BD00BFDC7C002008B5024882
:1025500004F002F808BD00BF386D002008B502483D
:1025600003F0D2FE08BD00BFB46C002008B50248DD
:1025700000F0E4FA08BD00BF706C00200120704735
:1025800008B50AF09FFE162303604FF0FF3008BD28
:1025900008B54FF0FF31FFF7F3FFFEE770B50C46CB
:1025A0001646002506E0AFF30080214601F8010B36
:1025B00001350C46B542F6DB304670BD4FF0FF30BA
:1025C00070474FF400534B60002070470120704764
:1025D0000020704710B503460C4A0D490D480068AD
:1025E00040B10C4800680344521A934206D8094A85
:1025F000136010BD0748084C0460F2E70AF062FE61
:102600000C2303604FF0FF30F3E700BF0000012010
:1026100000100000806D0020E08200207047000064
:1026200008B50A480A4B03604FF4E13343600023C6
:102630008360C36003610C2242618361C36104F063
:102640004FF900B908BDFFF71FFEFBE7846D0020BE
:102650000038014010B586B0002302930393049321
:1026600005930268174B9A4201D006B010BD03F5DE
:1026700058439A6942F480429A619A6902F480420E
:102680000092009A9A6942F004029A619B6903F0F1
:1026900004030193019B4FF40073029302230393FD
:1026A00003230593084C02A9204600F0BDFB4FF41C
:1026B0008063029300230393049302A9204600F051
:1026C000B3FBD2E70038014000080140FFF7A6FF46
:1026D0000B480C490C4A002302E0D458C450043380
:1026E000C4188C42F9D3094A094C002301E0136055
:1026F0000432A242FBD30AF0EBFDFFF70BFE70475A
:10270000000000204C080020700504084C08002040
:10271000E0820020FEE7000008B5074A136843F096
:1027200010031360032000F063F80F20FFF7AEFEE4
:10273000FFF782FE002008BD00200240034A116816
:10274000034B1B780B441360704700BFCC6D002017
:1027500074000020014B1868704700BFCC6D00204A
:1027600038B50446FFF7F6FF0546B4F1FF3F02D047
:10277000044B1B781C44FFF7EDFF401BA042FAD32B
:1027800038BD00BF74000020002808DB0901C9B271
:1027900000F1604000F5614080F80013704700F0E0
:1027A0000F000901C9B2014B1954704714ED00E044
:1027B00000B500F00700C0F1070CBCF1040F28BF02
:1027C0004FF0040C031D062B0FD9C31E4FF0FF3E24
:1027D0000EFA0CF021EA000199400EFA03FE22EAFB
:1027E0000E0241EA02005DF804FB0023EEE7000060
:1027F000074AD36823F4E0631B041B0C000200F4B7
:10280000E060034343F0BF6343F40033D360704799
:1028100000ED00E010B50446054BD868C0F3022077
:10282000FFF7C6FF01462046FFF7AEFF10BD00BF11
:1028300000ED00E0002807DB00F01F024009012343
:102840009340024A42F82030704700BF00E100E0A8
:1028500030B40124056CAC40C56B6C6004686360E7
:102860004368102B05D0036899600368DA6030BCB8
:10287000704703689A600368D960F8E700283AD087
:1028800010B4024600681D4B984229D81C4B0344E3
:102890001C49A1FB03131B099B0013641A4BD36350
:1028A000022382F82130016821F47F5121F03001A8
:1028B000536894682343D4682343146923435469B9
:1028C000234394692343D46923430B4303600020CB
:1028D0009063012382F8213082F8200010BC7047F9
:1028E0000A4B03440749A1FB03131B099B00136414
:1028F000074BD363D4E70120704700BF07040240B1
:10290000F8FFFDBFCDCCCCCC00000240F8FBFDBFF2
:102910000004024038B5044690F82000012832D067
:10292000012084F8200094F82100C0B2012804D0CE
:10293000002384F82030022038BD022084F82100D2
:102940000020A0632568286820F001002860204648
:10295000FFF77EFFE36A5BB12268136843F00E0362
:1029600013602268136843F0010313600020E3E75B
:102970002268136823F0040313602268136843F08D
:102980000A031360EDE70220D6E7034690F8212002
:10299000D2B2022A06D004228263002280F82020CC
:1029A0000120704701680A6822F00E020A6001687F
:1029B0000A6822F001020A60026CC06B012101FA70
:1029C00002F2426083F82110002083F82000704753
:1029D00008B590F82130DBB2022B03D004238363C7
:1029E000012008BD0268136823F00E03136002681B
:1029F000136823F00103136003684C4A93424ED9D5
:102A0000783A934224D01432934230D01432934215
:102A10002FD0143293422FD0143293422FD014323D
:102A200093422FD0143293422FD002F56272934218
:102A30002ED0143293422DD0143293422CD0143223
:102A4000934202D04FF4803203E04FF4805200E012
:102A50000122374B5A60012380F82130002380F88F
:102A60002030436B002B5ED098470020B9E710223E
:102A7000EFE74FF48072ECE74FF48052E9E74FF450
:102A80008032E6E74FF48012E3E74FF08072E0E730
:102A90000122DEE71022DCE74FF48072D9E7254AF5
:102AA000934224D01432934225D01432934224D03E
:102AB0001432934224D01432934224D014329342DD
:102AC00024D01432934224D002F56272934223D070
:102AD0001432934222D01432934221D014329342C2
:102AE00002D04FF4803203E04FF4805200E0012224
:102AF000114B5A60AFE71022FAE74FF48072F7E704
:102B00004FF48052F4E74FF48032F1E74FF4801233
:102B1000EEE74FF08072EBE70122E9E71022E7E7EA
:102B20004FF48072E4E700205BE700BF80000240C2
:102B300000040240080002400000024038B5C36BA8
:102B40001A6804682568016C04238B40134200F066
:102B50009B8015F0040F00F09780236813F0200F7E
:102B600003D1236823F00403236003689A4A934245
:102B700046D9783A934224D01432934228D0143262
:102B8000934227D01432934227D01432934227D055
:102B90001432934227D01432934227D002F5627246
:102BA000934226D01432934225D01432934224D03B
:102BB0001432934202D04FF4802203E04FF480425B
:102BC00000E00422854B5A60C36A03B1984738BDC0
:102BD0004022F7E74FF48062F4E74FF48042F1E7D8
:102BE0004FF48022EEE74FF48002EBE74FF0806273
:102BF000E8E70422E6E74022E4E74FF48062E1E7F9
:102C0000774A934224D01432934225D0143293420F
:102C100024D01432934224D01432934224D014325C
:102C2000934224D01432934224D002F5627293422C
:102C300023D01432934222D01432934221D0143242
:102C4000934202D04FF4802203E04FF4804200E030
:102C50000422644B5A60B7E74022FAE74FF48062DF
:102C6000F7E74FF48042F4E74FF48022F1E74FF4A6
:102C70008002EEE74FF08062EBE70422E9E74022B2
:102C8000E7E74FF48062E4E702238B40134200F051
:102C9000AB8015F0020F00F0A780236813F0200F1F
:102CA00006D1236823F00A032360012380F8213032
:102CB0000368494A93424BD9783A934224D014325C
:102CC00093422DD0143293422CD0143293422CD004
:102CD000143293422CD0143293422CD014329342AB
:102CE0002CD002F5627293422BD0143293422AD038
:102CF0001432934229D01432934202D04FF400325E
:102D000003E04FF4005200E00222344B5A600023EB
:102D100080F82030836A002B3FF459AF984756E77C
:102D20002022F2E74FF40072EFE74FF40052ECE795
:102D30004FF40032E9E74FF40012E6E74FF000727B
:102D4000E3E70222E1E72022DFE74FF40072DCE74D
:102D5000234A934224D01432934225D01432934212
:102D600024D01432934224D01432934224D014320B
:102D7000934224D01432934224D002F562729342DB
:102D800023D01432934222D01432934221D01432F1
:102D9000934202D04FF4003203E04FF4005200E0BF
:102DA0000222104B5A60B2E72022FAE74FF4007279
:102DB000F7E74FF40052F4E74FF40032F1E74FF435
:102DC0000012EEE74FF00072EBE70222E9E7202263
:102DD000E7E74FF40072E4E780000240000402409D
:102DE000080002400000024008238B4013423FF4D9
:102DF000EEAE15F0080F3FF4EAAE236823F00E03A1
:102E00002360026CC16B012303FA02F24A60836300
:102E100080F82130002380F82030036B002B3FF432
:102E2000D6AE9847D3E600BF70B582B00024A44662
:102E3000ACE0854DAB4210D007D9844DAB420CD0ED
:102E400005F58035AB4208D013E0A5F58015AB42FF
:102E500003D005F57025AB4207D18B68002B5FD0FE
:102E6000012B58D04261082403E0A5F58015AB4240
:102E7000F3D0BEF1FF0F55D806464FEA8C023368F7
:102E80000F25954023EA050304FA02F21343336049
:102E90004B6813F0805F77D06D4B9A6942F0010266
:102EA0009A619B6903F001030193019B4FEA9C0225
:102EB000951C684B53F825600CF00305AD000F23FB
:102EC000AB4026EA0306644B984232D003F5806398
:102ED000984200F0978003F58063984200F0948058
:102EE00003F58063984200F0918003F58063984277
:102EF00000F08E8003F58063984218D0062319E015
:102F0000CC68B6E7CC680434B3E7CC680834B0E7E3
:102F1000CC680C34ADE702610824AAE70024A8E7D6
:102F20000424A6E7061DACF108029200A7E70523DA
:102F300000E00023AB4033430232464D45F82230D7
:102F40004B6813F4801F65D0444A936843EA0E032C
:102F500093604B6813F4001F62D0404AD36843EA81
:102F60000E03D3604B6813F4003F5FD03B4A5368B5
:102F700043EA0E0353604B6813F4803F5CD0374A3A
:102F8000136843EA0E0313600CF1010C0B6833FA6B
:102F90000CF257D0012202FA0CF203EA020E32EAD6
:102FA0000303F1D14B68122B3FF643AF122B3FF6D0
:102FB00060AF01A555F823F05B2E0008012F000833
:102FC0000B2F00081D2F0008732E0008732E000819
:102FD000732E0008732E0008732E0008732E00084D
:102FE000732E0008732E0008732E0008732E00083D
:102FF000732E0008732E0008732E0008052F00089A
:10300000112F0008012395E7022393E7032391E79B
:1030100004238FE7114A936823EA0E03936098E72D
:103020000E4AD36823EA0E03D3609BE70B4A53682A
:1030300023EA0E0353609EE7084A136823EA0E034F
:103040001360A1E702B070BD000022100000311033
:10305000001002400000014000080140000401404F
:103060000AB10161704709040161704703685A6938
:1030700012F4806F01D1002070476FF480625A61B2
:1030800000230363202280F83D2080F83E30026C4C
:1030900042F00402026480F83C30012070472DE9C0
:1030A000F04106460C46174698463BE0FFF752FBB8
:1030B000069BC01A404502D8B8F1000F32D1012D4D
:1030C00018D033689B6924EA03039BB2B3FA83F3F5
:1030D0005B099F4226D100233363202286F83D20DE
:1030E00086F83E30326C42F02002326486F83C3082
:1030F000012027E033685B6924EA03039BB2B3FA3B
:1031000083F35B09E5E733685B6924EA030C1FFA84
:103110008CFCBCFA8CFC4FEA5C1C674511D1B8F101
:10312000FF3FC3D1C4F30745012DECD033689B6941
:1031300024EA030C1FFA8CFCBCFA8CFC4FEA5C1CE2
:10314000EBE70020BDE8F0812DE9F84305460E4687
:103150009046994653E01A6842F400721A602B6850
:103160006FF480625A6100232B63202285F83D2092
:1031700085F83E302A6C42F004022A6485F83C301F
:1031800001204AE0FFF7E6FAA0EB0900404502D82B
:10319000B8F1000F33D1012F17D02B689B6926EAB5
:1031A00003039BB2003B18BF012343B300232B63EF
:1031B000202285F83D2085F83E302A6C42F020021E
:1031C0002A6485F83C30012027E02B685B6926EAF9
:1031D00003039BB2003B18BF0123E6E72B689C6901
:1031E00026EA0404A4B2003C18BF0124A4B12B6851
:1031F0005A6912F4806FAED1B8F1FF3FC2D1C6F365
:103200000747012FEAD12B685C6926EA0404A4B2BF
:10321000003C18BF0124E9E70020BDE8F883000066
:10322000F0B583B004460D4616461F46C36A082B08
:103230000DD0012B0BD013F5803F08D0036B122B60
:103240000AD10268136843F48073136004E02268B3
:10325000136843F4807313600097334600224FF0E5
:1032600001112046FFF71BFF80B92369B3F5804F9A
:1032700016D1236805F0FE051D613B463246134911
:103280002046FFF761FFF8B903B0F0BD23681B6863
:1032900013F4807F02D04FF4007323640320F3E71C
:1032A000EB11226803F0060343F0F00313613B4681
:1032B000324607492046FFF747FF18B92368EDB2A9
:1032C0001D61DAE70120DFE70120DDE702000100F0
:1032D0000800010070B504460D46164623685B6978
:1032E00013F0800F21D12046FFF7C0FEF8B9B5F1E9
:1032F000FF3FF3D0FFF72EFA801BA84201D8002D24
:10330000ECD123685B6913F0800FE7D100232363BE
:10331000202284F83D2084F83E30226C42F02002C6
:10332000226484F83C30012000E0002070BD0120C0
:10333000FCE770B504460D46164623685B6913F03A
:10334000040F21D12046FFF791FEF8B9B5F1FF3FF8
:10335000F3D0FFF7FFF9801BA84201D8002DECD174
:1033600023685B6913F0040FE7D100232363202255
:1033700084F83D2084F83E30226C42F02002226422
:1033800084F83C30012000E0002070BD0120FCE703
:10339000002800F0CC8070B5044690F83D30002B3A
:1033A00077D0242384F83D302268136823F001038A
:1033B00013602268136843F40043136022681368A3
:1033C00023F40043136002F019F862685A4B9A42E2
:1033D00064D85A4B98428CBF00230123002B40F045
:1033E000A8805749A1FB00318B0C25686A6822F040
:1033F0003F0242EA91426A6021680A6A22F03F0273
:1034000066684D4DAE424FD8013313430B622168BD
:10341000CA6922F44F4222F0FF026568464B9D4282
:103420004CD8431E6D00B3FBF5F3013340F6FC703E
:10343000034278D0C3F30B031A43CA6121680B68B7
:1034400023F0C003E269206A024313430B60216842
:103450008B6823F4034323F0FF032269E0680243EF
:1034600013438B602168CB6823F0FF036269A06976
:1034700002431343CB602268136843F001031360D7
:1034800000202064202384F83D30206384F83E002F
:1034900070BD80F83C30FEF713FE82E7294B98425E
:1034A0008CBF0023012399E74FF4967505FB03F3C6
:1034B000254DA5FB03539B090133A6E7A668BEB9BA
:1034C000431E05EB450CB3FBFCF30133C3F30B03C5
:1034D000B3FA83F35B0943BBC6B9431E05EB45054D
:1034E000B3FBF5F30133C3F30B0343F40043A3E74A
:1034F000431E05EB850C0CEB8C0CB3FBFCF301338A
:10350000C3F30B03B3FA83F35B09E4E7431E05EB54
:10351000850505EB8505B3FBF5F30133C3F30B0319
:1035200043F4404388E7042386E7012384E701202E
:1035300070470120ACE700BFA08601007F841E0019
:1035400083DE1B43FF083D00D34D62102DE9F0439D
:1035500085B004460F46914698460C9EFFF7FAF850
:10356000054694F83D00C0B2202804D00227384612
:1035700005B0BDE8F0830095192301224F4920468C
:10358000FFF78DFD002840F0928094F83C30012B2D
:1035900000F08F80012384F83C3023681A6812F011
:1035A000010F03D11A6842F001021A602268136801
:1035B00023F400631360212384F83D30102384F842
:1035C0003E3000232364C4F82490A4F82A80638D3D
:1035D00023853B4BE3622B46324639462046FFF7B4
:1035E0001FFE0746002866D10023039323685A690B
:1035F00003929B690393039B11E0236C042B01D07E
:103600000127B4E72268136843F400731360F7E7F7
:103610002A4631462046FFF78CFE00282ED1238D06
:10362000002B36D02A4631462046FFF753FE0028AD
:10363000E3D1626A236812781A61606A431C63628C
:10364000618D89B2013989B26185238D013B9BB2BD
:1036500023852268516911F0040FD9D0002BD7D0EF
:1036600043781361636A01336362638D9BB2013BEC
:103670009BB26385238D013B2385C9E7236C042B13
:1036800001D0012773E72268136843F400731360C5
:10369000F7E72268136843F400731360202384F86B
:1036A0003D30002384F83E3084F83C305FE7022749
:1036B0005DE702275BE7012759E700BF0200100022
:1036C0000000FFFF2DE9F8430646884617461D46D1
:1036D000FFF740F8814633689C6838EA04040CBF61
:1036E00001240024BC4212D0B5F1FF3FF3D0FFF714
:1036F00031F8A0EB0900A84201D2002DEBD1012343
:1037000086F83530002386F83430032000E00020AE
:10371000BDE8F883002800F08A8038B5044690F8A8
:103720003530002B54D0022284F835202168CB6933
:1037300023F47B6323F00F03CB6123681A62636970
:1037400093426CD0E368002B47D11025A368202B4F
:1037500000D86D002368374A934240D0364A9342DE
:1037600041D001F065FD2369B3F5007F3FD0B0FB88
:10377000F5F000EB800043006269B3FBF2F3053320
:103780002E4AA2FB0323C3F3C002C2EBD3035B08A0
:1037900011029A1EFD2A44D822690A4321681A435D
:1037A0000A622168CB6923F47B6323F00F0362680C
:1037B000A0680243E0680243A0690243134343F454
:1037C0000063CB610020A063012384F8353038BD4D
:1037D00080F83430FEF7C0FCA5E72025B6E70420CA
:1037E00001F0D6FEBFE7082001F0D2FEBBE7E36898
:1037F00053B1AD00B0FBF5F000EB8000430062690F
:10380000B3FBF2F30533BBE7ED00B0FBF5F000EBE3
:10381000800043006269B3FBF2F30533B0E7002197
:10382000B7E7A36B43F01003A3630120CFE70120A8
:10383000704700BF00380040003C0040CDCCCCCCED
:103840002DE9F04182B0002900F09B8004461D461E
:10385000002A00F0988094F83430DBB2012B00F09D
:103860009780012384F8343094F83560F6B29E4294
:1038700010D1032384F835300023A363E16123686A
:10388000D96901F00701032909D0052907D022844D
:10389000628408E0002384F83430022674E0520089
:1038A00092B222846284DF69DA6912F4806F03D1F4
:1038B000DA6942F48062DA612B4601220221204655
:1038C000FFF700FF804628BB638C9BB2002B37D0EC
:1038D000E26923681288DA60E3690233E361628C8B
:1038E00092B2013A92B262842B4601220221204612
:1038F000FFF7E8FEC8B923689A6812F0080FE3D012
:10390000002201929B680193019BA36B43F0040387
:10391000A363D9E7A36B43F00103A363012384F8F6
:103920003530002384F834302EE0A36B43F00103DC
:10393000A363012384F83530002384F8343023E076
:1039400017F440770AD0B7F5807F07D0012384F8B9
:103950003530002384F83430464615E02B460022EB
:1039600080212046FFF7AEFE0028EFD0A36B43F086
:103970000103A363012384F83530002384F8343035
:1039800002E0012600E00126304602B0BDE8F081E9
:103990000226F9E700295ED038B50446002A5CD03B
:1039A00094F83430DBB2012B59D0012384F8343041
:1039B00094F83550EDB29D4210D1032384F8353090
:1039C0000023A363E1612368DB6903F00703032B92
:1039D00009D0052B07D02284628408E0002384F8F4
:1039E000343002203AE0520092B222846284E36AC8
:1039F0001C4ADA62E36A1C4A9A62E36A1B4A1A6347
:103A00002268238C9BB20C32E169E06AFEF782FFE8
:103A1000A8B92368DA6912F4806F03D1DA6942F435
:103A20008062DA6123685A6812F0020F03D15A6883
:103A300042F002025A60002384F834300EE0A36B97
:103A400043F00803A363012384F83530002384F88E
:103A50003430284602E001207047012038BD0220A2
:103A6000FCE700BF0B3D0008153D0008693D00085C
:103A700000296DD030B583B00446002A6AD094F88E
:103A80003430DBB2012B68D0012384F8343094F851
:103A90003550EDB29D4210D1042384F83530002317
:103AA000A36361622368DB6903F00703032B09D07A
:103AB000052B07D02285628508E0002384F8343086
:103AC000022048E0520092B222856285236B244A8C
:103AD000DA62236B234A9A62236B234A1A632168B2
:103AE000CB6903F44073B3F5407F1DD0238D9BB2A7
:103AF000626A0C31206BFEF70DFFE8B92368DA69C2
:103B000012F4806F03D1DA6942F48062DA612368CB
:103B10005A6812F0010F03D15A6842F001025A604C
:103B2000002384F8343016E000230193CB6801931E
:103B30008B680193019BD9E7A36B43F00803A36350
:103B4000012384F83530002384F83430284602E01D
:103B500001207047012003B030BD0220FBE700BF09
:103B6000393D0008433D0008693D0008034690F8D0
:103B70003420D2B2012A1CD0012280F8342090F8DF
:103B80003520D2B2032A08D090F83520D2B2042AC8
:103B900009D0002083F83400704701684A6822F099
:103BA00002024A60F5E701684A6822F001024A60B1
:103BB000EFE702207047034690F83420D2B2012A82
:103BC00025D0012280F8342090F83520D2B2032A83
:103BD00011D090F83520D2B2042A12D01A68D169D7
:103BE00011F4806F03D1D16941F48061D16100206B
:103BF00083F83400704701684A6842F002024A6064
:103C0000ECE701684A6842F001024A60E6E70220F8
:103C1000704730B583B004464368B3F5007F01D0E8
:103C2000002B3DD1E06A48B1FEF7AFFE054630B14A
:103C3000A36B43F00803A363012500E00025642380
:103C4000012202212046FFF73DFD30B1A36B43F076
:103C50000103A363012584F83550642300228021E9
:103C60002046FFF72FFD30B1A36B43F00103A363A0
:103C7000012584F835502268D36923F48063D36129
:103C80000023009323689A680092009A5A6822F0F1
:103C900002025A60012384F83530284603B030BD53
:103CA000B3F5407F04D0B3F5807F01D00025F1E764
:103CB000206B48B1FEF769FE054630B1A36B43F0B7
:103CC0000803A363012500E000252268D36923F4DB
:103CD0008063D361002301932368DA6801929A68B4
:103CE0000192019A5A6822F001025A606368B3F5A2
:103CF000807F02D02368DB68CCE7A36B43F04003EE
:103D0000A363012584F83550C4E708B5406AFDF780
:103D1000FDFE08BD08B50346406A9B694BB90268C1
:103D2000536823F00203536000234384012380F887
:103D30003530FDF7F7FE08BD08B5406AFDF7ECFE2B
:103D400008BD08B50346406A9B694BB902685368D1
:103D500023F00103536000234385012380F83530AD
:103D6000FDF7FCFE08BD704708B5406A026853685D
:103D700023F003035360002343844385012380F829
:103D80003530836B43F008038363FFF7ECFF08BD16
:103D900038B512F4804F44D00468B4F850309BB268
:103DA00091F800C003EBCC03023304EB4304B4F8F6
:103DB0000044C4F309048B69A34228D31B1B8B6105
:103DC0008B697BB9056835F82C309BB223F48043AE
:103DD00023F0700383F4005343F4004343F0800363
:103DE00025F82C3012F0400F0ED002680D7832F812
:103DF00025309BB223F4E04323F0700343F40043E7
:103E000043F0C00322F8253024B9204638BD0023F2
:103E10008B61D5E723460A894969006804F0F0F808
:103E2000F3E70468B4F850309BB291F800C003EB9C
:103E3000CC03063304EB4304B4F80044C4F3090490
:103E40008B69A3422FD31B1B8B618B697BB90568E0
:103E500035F82C309BB223F4804323F0700383F4B5
:103E6000005343F4004343F0800325F82C3012F054
:103E7000400F0FD1026891F800C032F82C309BB28D
:103E800023F4E04323F0700343F4004343F0C00302
:103E900022F82C30002CB8D023464A8949690068A2
:103EA00004F0AEF8B1E700238B61CEE770B586B0C1
:103EB000002800F08180044690F8A932EBB103237A
:103EC00084F8A932206803F02AF9254655F8106BCA
:103ED000EC460FCDACE80F002B68CCF80030231D6A
:103EE0000ECB304603F00BF9054658B1022384F897
:103EF000A9320125284606B070BD80F8A83208F026
:103F000045FEDCE70021206803F013F92B4616E09C
:103F10005A1C02EB820104EBC1010120487002EB44
:103F2000820104F8313004EBC1000021C17003EBC1
:103F3000830004EBC0008163C1630164D3B2616894
:103F40008B42E5D316E005EB850304EBC3030022A7
:103F500083F8692183F8685183F86B21C3F87821CD
:103F6000C3F87C2105EB850304EBC303C3F8802170
:103F70000135EDB2A942E6D8254655F8106BEC465E
:103F80000FCDACE80F002B68CCF80030231D0ECB12
:103F9000304603F0D0F8054620B1022384F8A93258
:103FA0000125A7E7002384F82430012384F8A932EF
:103FB000206803F023FC9DE701259BE738B590F8C6
:103FC000A832012B11D00446012580F8A8520068C0
:103FD00003F09CF82946204608F0EDFE206803F027
:103FE0000BFC002084F8A80238BD0220FCE770B565
:103FF00005460C46164612F0400F00F00E8102688E
:10400000B2F850309BB2097803EBC103023302EBE4
:104010004302B2F80024C2F30902A36993424ED9C5
:104020009B1AA361A369002B66D16378002B49D149
:104030002B68B3F8502092B2134403EB0113B3F88A
:104040000424C2F30902A3F80424B3F804246FEA99
:1040500042426FEA524292B2A3F804242B6862787B
:10406000002A3CD1B3F8502092B21344227803EBDB
:104070000213B3F80C24C2F30902A3F80C24B3F81A
:104080000C246FEA42426FEA524292B2A3F80C2427
:104090002178284608F0AEFD16F4804F41D02A68FA
:1040A000217832F821309BB223F4E04323F07003EF
:1040B00043F4404343F0800322F8213031E00023F1
:1040C000A361AFE7012BC9D12B68B3F8502092B29E
:1040D000134403EB01130022A3F80424BEE7012AD2
:1040E000D6D1B3F8502092B21344227803EB0213D6
:1040F0000022A3F80C24CBE716F4804F0DD02868DB
:1041000030F821309BB223F4E04323F0700343F4F2
:10411000404343F0800320F8213094F82430012BF1
:1041200012D02A68217832F821309BB223F4E04380
:1041300023F0400383F0300343F4004343F0800353
:1041400022F82130002070BD636913446361E36984
:104150001344E361216A2369994224D3C91A216275
:104160006278002A44D12A68B2F8501089B20A4411
:10417000217802EB0112B2F80414C1F30901A2F88C
:1041800004143E2B1BD9580913F01F0F00D101381E
:10419000B2F8041489B2800280B2014341F40041B4
:1041A000A2F8041426E021B9002384F82430134631
:1041B000D6E7002384F8243023620B46D0E74BB9BE
:1041C000B2F804146FEA41416FEA514189B2A2F892
:1041D00004140FE0590813F0010F00D00131B2F8B8
:1041E000040480B2890289B20143A2F8041401E0F8
:1041F000012A06D09BB222896169286803F006FB78
:104200008FE72A68B2F8501089B20A44217802EB8D
:10421000011299B2A2F80414ECE70268B2F8503027
:104220009BB2097803EBC103063302EB4302B2F8F9
:104230000024C2F30902A36993424FD39B1AA361DE
:10424000A369002B67D16378002B4AD12B68B3F8A0
:10425000502092B2134403EB0113B3F80424C2F3C9
:104260000902A3F80424B3F804246FEA42426FEA77
:10427000524292B2A3F804242B686278002A3DD1FE
:10428000B3F8502092B21344227803EB0213B3F830
:104290000C24C2F30902A3F80C24B3F80C246FEA2F
:1042A00042426FEA524292B2A3F80C242178284687
:1042B00008F0A0FC16F4804F7FF433AF2A68217811
:1042C00032F821309BB223F4E04323F0700343F42F
:1042D000404343F0800322F8213022E70023A3610A
:1042E000AEE7012BC8D12B68B3F8502092B213442B
:1042F00003EB01130022A3F80424BDE7012AD5D162
:10430000B3F8502092B21344227803EB0213002238
:10431000A3F80C24CAE716F4804F0DD1286830F8B2
:1043200021309BB223F4E04323F0700343F4404375
:1043300043F0800320F8213094F82430012B7FF4DF
:10434000F0AE636913446361E3691344E361216A76
:104350002369994224D3C91A21622A686178002905
:1043600043D1B2F8501089B20A44217802EB01120D
:10437000B2F80C14C1F30901A2F80C143E2B1BD99E
:10438000580913F01F0F00D10138B2F80C1489B28C
:10439000800280B2014341F40041A2F80C1426E0EF
:1043A00021B9002384F824301346D6E70023236282
:1043B00084F824300B46D0E74BB9B2F80C146FEAFE
:1043C00041416FEA514189B2A2F80C140FE059083B
:1043D00013F0010F00D00131B2F80C0480B2890251
:1043E00089B20143A2F80C1401E0012906D09BB266
:1043F00062896169286803F009FA92E6B2F8501000
:1044000089B20A44217802EB011299B2A2F80C1485
:10441000EDE72DE9F04105462868B0F8443013F483
:10442000004F00F09282B0F84440A3B214F00F04A1
:1044300040F0E28013F0100F6BD003889AB213F4AF
:10444000006F40F09D8012F4004FE5D0038823F008
:1044500070031B051B0D43F0800303802868B0F830
:1044600050309BB295F8682103EBC203063300EB92
:104470004303B3F80034C3F30903C5F884318BB1A7
:10448000D5F87C1171B1B5F86E2103F0B9FDD5F8FE
:104490007C31D5F884211344C5F87C3100212846AD
:1044A00008F09CFB2A68138899B213F4006FB3D10B
:1044B00001F44051B1F5405FAED0B2F850309BB23C
:1044C0001A44B2F80C34C3F30903A2F80C34D5F83B
:1044D00078313E2B77D9590913F01F0F00D10139DC
:1044E000B2F80C349BB2890289B20B4343F4004307
:1044F000A2F80C342A6813889BB223F4804323F07B
:10450000700383F4405343F4004343F0800313806B
:1045100082E703889BB223F4E14323F070036FEA40
:1045200043436FEA53439BB203802A68B2F850308A
:104530009BB295F8281003EBC103023302EB430250
:10454000B2F80034C3F309036B64EA6B1A44EA63FC
:104550000021284608F04EFB95F82430002B3FF44C
:104560005BAF2B6C002B7FF457AF95F824302A6893
:1045700043F08003A2F84C30002385F824304BE749
:10458000B0F850309BB295F8682103EBC2030633B4
:1045900000EB4303B3F80034C3F30903C5F88431D7
:1045A000B5F86E2105F52C7103F02AFD2A681388F1
:1045B00023F070031B051B0D43F080031380284676
:1045C00008F004FB28E74BB9B2F80C346FEA434318
:1045D0006FEA53439BB2A2F80C348BE7590813F0EF
:1045E000010F00D00131B2F80C3498B28B029BB2AB
:1045F0000343A2F80C347DE730F824309EB213F464
:10460000004F4CD116F0800F3FF406AF621C02EB56
:10461000820105EBC101286830F824309BB223F4F5
:10462000E14323F070036FEA43436FEA53439BB2C5
:1046300020F82430CB78012B00F0F28016F4807F34
:1046400040F07E812868B0F850309BB2621C02EBCB
:10465000820215F8326003EBC603023300EB43031A
:10466000B3F80034C3F3090304EB840205EBC20280
:10467000126C9A4240F24C8104EB840705EBC707A9
:10468000D21A3A6404EB840205EBC202126C002ACF
:1046900040F045813146284608F0ACFABCE630F8D7
:1046A000243023F070031B051B0D43F0800320F81A
:1046B000243004EB8401C90001F5B47105EB010855
:1046C00004EB840305EBC30393F87431002B42D150
:1046D0002868B0F850309BB204EB840205EBC202AC
:1046E00092F8682103EBC203063300EB4303B3F8EF
:1046F0000074C7F3090717BB04EB840305EBC3037E
:10470000D3F884213A44C3F88421D3F87C213A4475
:10471000C3F87C21D3F880313BB104EB840305EB73
:10472000C303D3F878319F4275D204EB840305EBC1
:10473000C30393F86811284608F050FA62E704EBC7
:10474000840105EBC1013B46B1F86E21D1F87C1123
:1047500003F056FCD0E704EB840305EBC30393F8A6
:104760006B31022B35D0296804EB840205EBC202C1
:1047700092F8680131F820309BB223F4E04323F033
:10478000700343F4004343F0C00321F8203028684D
:1047900092F8682130F8223013F4804F20D0B0F81E
:1047A00050309BB203EBC203023300EB4303B3F878
:1047B0000074C7F30907002F9ED004EB840105EBBA
:1047C000C1013B46B1F87021D1F87C1103F018FC0F
:1047D00092E7324641462846FFF7DAFA07468BE76A
:1047E000B0F850309BB203EBC203063300EB430337
:1047F000B3F80074C7F30907002F3FF47DAF04EB53
:10480000840105EBC1013B46B1F87221D1F87C115E
:1048100003F0F6FB70E74146286803F00AF8F1E67A
:1048200004EB840305EBC30300221A6493F83430CD
:10483000FBB116F0400F37D04B781BBB2B68B3F899
:10484000502092B21344621C02EB820215F832200F
:1048500003EB0213B3F80424C2F30902A3F80424FF
:10486000B3F804246FEA42426FEA524292B2A3F8CC
:104870000424013404EB840415F83410284608F0AD
:10488000B9F9C9E5012BF4D12B68B3F8502092B2E5
:104890001344621C02EB820215F8322003EB021370
:1048A0000022A3F80424E4E72A68631C03EB8303D3
:1048B00005EBC3035B78D3B9B2F850309BB2134415
:1048C000621C02EB820215F8322003EB0213B3F8EC
:1048D0000C24C2F30902A3F80C24B3F80C246FEAE9
:1048E00042426FEA524292B2A3F80C24C1E7012B74
:1048F000BFD1B2F850309BB21344621C02EB82026B
:1049000015F8322003EB02130022A3F80C24B0E7C1
:1049100004EB840205EBC20200271764B2E604EB45
:10492000840205EBC202D66B1E44D663526C04EBC4
:10493000840405EBC4041344636402F07AFF6BE55E
:1049400032462846FFF753FB66E50020BDE8F081BC
:1049500090F8A832012B0DD010B50446012380F841
:10496000A83280F82410006802F040FF002084F88C
:10497000A80210BD0220704710B584B0044600683C
:1049800002F03EFF10F4004F20D110F4806F21D1CF
:1049900010F4804F2FD110F4005F37D110F4805FF6
:1049A0003ED110F4006F40F0878010F4007F40F09B
:1049B000AE8010F4807F27D02268B2F844309BB2DA
:1049C00023F480739BB2A2F844301DE02046FFF729
:1049D00020FD19E02268B2F844309BB223F48063D2
:1049E0009BB2A2F84430204608F015F90021204679
:1049F000FFF7AEFF08E02268B2F844309BB223F420
:104A000080439BB2A2F8443004B010BD2268B2F8D3
:104A100044309BB223F400539BB2A2F84430F3E736
:104A20002268B2F840309BB223F004039BB2A2F894
:104A300040302268B2F840309BB223F008039BB2AA
:104A4000A2F84030204608F009F92268B2F8443054
:104A50009BB223F480539BB2A2F84430D4E722687F
:104A600032F8231004AA02EB430222F8101C01338F
:104A7000DBB2072BF3D92268B2F840309BB243F087
:104A80000103A2F840302268B2F840309BB223F014
:104A900001039BB2A2F840302368B3F8442012F41B
:104AA000806FF9D0B3F8442092B222F4806292B2BF
:104AB000A3F8442000230BE00023DAE7226804A9CE
:104AC00001EB430131F8101C22F823100133DBB253
:104AD000072BF3D92268B2F840309BB243F00803A9
:104AE000A2F840302268B2F844309BB223F400634D
:104AF0009BB2A2F844302268B2F840309BB243F037
:104B00000403A2F84030204608F098F87CE72268B9
:104B1000B2F844309BB223F400739BB2A2F8443045
:104B2000204608F072F86FE710B50446084611F009
:104B3000800F25D101F0070C0CEB8C01C90001F5A9
:104B4000B47E04EB0E010CEB8C0C04EBCC0C4FF0A0
:104B5000000E8CF869E100F0070008700A61CB7064
:104B6000022B1AD094F8A832012B19D0012384F813
:104B7000A832206802F0F4FA002084F8A80210BDE0
:104B800001F0070C0CF1010C0CEB8C0104EBC101E2
:104B90004FF0010E81F801E0DDE700230B71E1E742
:104BA0000220ECE710B504460B4611F0800F1FD130
:104BB00001F0070202EB8201C90001F5B471014462
:104BC00002EB820200EBC202002082F8690103F0CE
:104BD00007030B7094F8A832012B13D0012384F83B
:104BE000A832206802F0A1FC002084F8A80210BDC1
:104BF00001F00702013202EB820100EBC10101204A
:104C00004870E4E70220F2E710B501F0070C0CEB66
:104C10008C01C90001F5B4710CEB8C0E00EBCE0ECB
:104C2000CEF87C21CEF880310024CEF884418EF875
:104C300069418EF868C10144006802F0FAFD20461F
:104C400010BD01F0070101EB810100EBC100D0F8BC
:104C50008401704738B501F0070404F1010C0CEB36
:104C60008C0104EB840E00EBCE0ECEF83C20CEF887
:104C7000403001228EF84C20CEF848300025CEF886
:104C8000445000EBC1035A7000F8314019460068E7
:104C900002F0CFFD284638BD38B501F0070542685F
:104CA000954231D804460B4611F0800F1ED101EB1E
:104CB0008101C90001F5B471014403EB830300EBEA
:104CC000C303002283F8692101238B700D7094F8CF
:104CD000A832012B1AD0012384F8A832206802F0F0
:104CE0000FFD5DB1002084F8A80238BD6B1C03EBFA
:104CF000830100EBC10101224A70E5E704F52C7144
:104D0000206802F081FDEDE70120EEE70220ECE7EC
:104D10000B4601F00F014268914230D810B50446AD
:104D200013F0800F21D103F0070202EB8201C900CA
:104D300001F5B471014402EB820200EBC2020020D3
:104D400082F8690100228A7003F007030B7094F85F
:104D5000A832012B15D0012384F8A832206802F074
:104D6000F4FC002084F8A80210BD03F00702013211
:104D700002EB820100EBC10101204870E2E7012053
:104D800070470220F0E790F8A832012B14D010B53C
:104D90000446012380F8A83211F0800F06D1006884
:104DA00002F0DCF9002084F8A80210BD01F0070130
:104DB000006802F0D1F9F5E70220704711F0800F8A
:104DC0000BD001F00701013101EB810100EBC100C3
:104DD00052B90273C3800020704701EB8101C90002
:104DE00001F5B4710844F3E70122027303811B0C3F
:104DF0004381F0E782B0084B1B68084AA2FB0323FB
:104E00005B0A00FB03F3019300BF019B5A1E019252
:104E1000002BF9D102B0704770000020D34D621012
:104E2000002800F0F18170B582B00446036813F0E9
:104E3000010F2CD0994B5B6803F00C03042B1DD0A1
:104E4000964B5B6803F00C03082B12D06368B3F534
:104E5000803F41D0002B55D103F1804303F504334B
:104E60001A6822F480321A601A6822F480221A60CA
:104E700037E08A4B5B6813F4803FE7D0874B1B68B1
:104E800013F4003F03D06368002B00F0BF81236858
:104E900013F0020F75D0814B5B6813F00C0F5FD0DD
:104EA0007E4B5B6803F00C03082B54D02369002B66
:104EB00000F08A807A4B01221A60FDF74BFC054610
:104EC000764B1B6813F0020F75D1FDF743FC401BB6
:104ED0000228F5D903209EE1704A136843F4803319
:104EE0001360636843B3FDF735FC05466B4B1B68E5
:104EF00013F4003FCBD1FDF72DFC401B6428F5D9FE
:104F0000032088E1B3F5A02F09D0644B1A6822F47E
:104F100080321A601A6822F480221A60E1E703F1F5
:104F20008043A3F53C331A6842F480221A601A6861
:104F300042F480321A60D4E7FDF70CFC0546574B6B
:104F40001B6813F4003FA2D0FDF704FC401B64284B
:104F5000F5D903205FE1514B5B6813F4803FA5D185
:104F60004E4B1B6813F0020F03D02369012B40F056
:104F70004F814A4A136823F0F803616943EAC10389
:104F80001360236813F0080F33D0A369002B5CD0A3
:104F9000434B0122C3F88024FDF7DCFB05463F4B61
:104FA0005B6A13F0020F21D1FDF7D4FB401B0228EE
:104FB000F5D903202FE1394A136823F0F80361691A
:104FC00043EAC1031360DCE7354B00221A60FDF7AA
:104FD000C1FB0546314B1B6813F0020FD1D0FDF722
:104FE000B9FB401B0228F5D9032014E10120FFF78B
:104FF00001FF236813F0040F00F09680274BDB6954
:1050000013F0805F34D1254BDA6942F08052DA61C7
:10501000DB6903F080530193019B0125214B1B6841
:1050200013F4807F26D0E368012B3DD0002B53D1B1
:1050300003F1804303F504331A6A22F001021A6275
:105040001A6A22F004021A6233E0154B0022C3F8F8
:105050008024FDF77FFB0546104B5B6A13F0020FBF
:10506000C7D0FDF777FB401B0228F5D90320D2E01B
:105070000025D3E70B4A136843F480731360FDF7F0
:1050800069FB0646074B1B6813F4807FCBD1FDF705
:1050900061FB801B6428F5D90320BCE000100240AE
:1050A00000004242007000405F4A136A43F001036F
:1050B0001362E36833B3FDF74DFB06465A4B1B6A98
:1050C00013F0020F2FD1FDF745FB801B41F288330F
:1050D0009842F3D903209EE0052B09D0524B1A6A5F
:1050E00022F001021A621A6A22F004021A62E0E750
:1050F0004D4B1A6A42F004021A621A6A42F0010227
:105100001A62D6E7FDF726FB0646474B1B6A13F0EB
:10511000020F08D0FDF71EFB801B41F28833984236
:10512000F3D9032077E0E5B9E369002B72D03E4A5A
:10513000526802F00C02082A56D0022B17D03B4BC3
:1051400000221A66FDF706FB0446374B1B6813F076
:10515000007F47D0FDF7FEFA001B0228F5D9032097
:1051600059E0314AD36923F08053D361DCE72F4BF8
:1051700000221A66FDF7EEFA05462B4B1B6813F06A
:10518000007F06D0FDF7E6FA401B0228F5D9032080
:1051900041E0236AB3F5803F1AD023494B6823F4DA
:1051A0007413226A606A024313434B601F4B01224F
:1051B0001A66FDF7CFFA04461B4B1B6813F0007FFD
:1051C0000ED1FDF7C7FA001B0228F5D9032022E013
:1051D000154A536823F40033A1680B435360DCE79E
:1051E000002018E0002016E0012B16D00E4B5B6863
:1051F00003F48031226A914211D103F47013626A80
:1052000093420ED1002006E001207047012002E009
:10521000012000E0002002B070BD0120FBE701206A
:10522000F9E70120F7E700BF00100240000042420A
:105230000F4B5B6803F00C02082A01D00D48704741
:10524000C3F383420C49885C13F4803F0BD0084BB6
:105250005B68C3F34043094AD35C064A02FB00F093
:10526000B0FBF3F07047064B03FB00F0704700BF44
:105270000010024000127A00945301089053010874
:1052800000093D00002800F0A08070B50D460446DE
:10529000524B1B6803F007038B420BD24F4A136833
:1052A00023F007030B431360136803F007038B42DB
:1052B00040F08D80236813F0020F17D013F0040F15
:1052C00004D0474A536843F4E0635360236813F003
:1052D000080F04D0424A536843F460535360404A75
:1052E000536823F0F003A1680B435360236813F065
:1052F000010F31D06368012B20D0022B25D0384A12
:10530000126812F0020F64D035494A6822F0030295
:1053100013434B60FDF71EFA0646314B5B6803F002
:105320000C036268B3EB820F16D0FDF713FA801BF3
:1053300041F288339842F0D9032045E0284A1268A8
:1053400012F4003FE0D101203EE0254A126812F03D
:10535000007FD9D1012037E0204B1B6803F0070301
:10536000AB420AD91D4A136823F007032B4313608D
:10537000136803F00703AB422DD1236813F0040F29
:1053800006D0174A536823F4E063E1680B43536087
:10539000236813F0080F07D0114A536823F46053B1
:1053A000216943EAC1035360FFF742FF0C4B5B687E
:1053B000C3F303130B4AD35CD8400B4B18600B4B61
:1053C0001868FDF763F8002070BD012070470120C8
:1053D000FAE70120F8E70120F6E700BF00200240CD
:1053E0000010024080530108700000207800002067
:1053F000014B1868704700BF7000002008B5FFF728
:10540000F7FF044B5B68C3F30223034AD35CD84025
:1054100008BD00BF001002407853010808B5FFF72F
:10542000E7FF044B5B68C3F3C223034AD35CD84055
:1054300008BD00BF00100240785301080F2303602D
:105440000B4B5A6802F0030242605A6802F0F00205
:1054500082605A6802F4E062C2605B68DB0803F4B1
:10546000E0630361034B1B6803F007030B607047A5
:10547000001002400020024070B582B0044603686C
:1054800013F0010F36D03F4BDB6913F0805F49D139
:105490003C4BDA6942F08052DA61DB6903F08053F9
:1054A0000193019B0125384B1B6813F4807F3BD08F
:1054B000344B1B6A13F4407313D0626802F44072D9
:1054C0009A420ED02F4A136A23F440702F490126C6
:1054D000C1F840640026C1F84064106213F0010F67
:1054E00036D1284A136A23F4407361680B43136270
:1054F000002D3ED1236813F0020F06D0214A5368D5
:1055000023F44043A1680B435360236813F0100F4A
:1055100034D01C4A536823F4800361690B43536001
:1055200000202CE00025BEE7174A136843F480737F
:105530001360FDF70FF90646134B1B6813F4807FC9
:10554000B6D1FDF707F9801B6428F5D9032016E0D2
:10555000FDF700F906460B4B1B6A13F0020FC0D192
:10556000FDF7F8F8801B41F288339842F3D9032005
:1055700005E0D36923F08053D361BBE7002002B07C
:1055800070BD00BF001002400070004000004242A9
:1055900008B501380F2863D8DFE800F03557622FCF
:1055A0006262623262626262626262082F4B5A68B1
:1055B000186810F0807054D0C2F383432C49C85C43
:1055C00012F4803F15D0294B5B68C3F34043294A4E
:1055D000D25C294BB3FBF2F303FB00F0234B5B6877
:1055E00013F4800F3DD14000244BA3FB0030400852
:1055F00037E0234B03FB00F0F0E7FFF719FE30E044
:10560000FFF716FE2DE0194B1B6A40F202321A40DA
:10561000B2F5817F26D003F44073B3F5007F04D048
:10562000B3F5407F09D000201BE0104A526A12F007
:10563000020FF5D049F6404013E00C4B186810F407
:1056400000300ED04FF224400BE0FFF7E7FE074B8F
:105650005B68C3F3813301335B00B0FBF3F000E020
:10566000002008BD4FF40040FBE700BF00100240DF
:10567000A8530108A453010800127A00ABAAAAAAF1
:1056800000093D0070B582B0044600230193006814
:1056900001F025FA054610B1284602B070BD206819
:1056A00001F016FD38B90123A364A36C012B0BD0C4
:1056B0002E46284614E00023A364206801F00FFA68
:1056C0000028F2D00546E7E70021206801F06EFBD4
:1056D0000028EDD04FF08055DEE7019B01330193A8
:1056E000019A4FF6FE739A4213D896B900212068AA
:1056F00001F05CFBE0B91249206801F035FC064678
:10570000C0B90021206801F0D5F9C30FE5D01E46CD
:10571000E3E7019A4FF6FE739A420ED810F08043E9
:1057200002D001236364B7E7002262641D46B3E739
:105730000546B1E74FF08055AEE74FF08075ABE717
:10574000000010C1F8B5846AC66AA6B9F8BD386809
:1057500001F08BF92070C0F307236370C0F3074397
:10576000A370000EE0700434043E0135072DEED91D
:10577000BC62FE62EAE707460025F7E7F0B583B0B2
:10578000046A466ADEB903B0F0BD237801936278FB
:1057900043EA02230193A27843EA02430193E278A9
:1057A00043EA026301930434043E01A9386801F01E
:1057B0005FF90135072DE8D93C627E62E3E70746D1
:1057C0000025F7E7F0B589B004460F46FCF7C2FFA5
:1057D00006460023009301930821206801F03CFA5B
:1057E000054610B1284609B0F0BD216D09042068B6
:1057F00001F0DCFA05460028F4D14FF0FF330293A4
:105800000823039330230493022305930023069374
:105810000123079302A9206801F04FF9206801F0E5
:10582000F5FA054658B1DDE701F01FF94DF82500FE
:105830000135FCF78FFF831BB3F1FF3F3FD020689A
:10584000436B13F02A0F07D1436B13F4001FEBD106
:10585000436B13F4005FECD1436B13F0080F25D1B9
:10586000436B13F0020F24D1456B15F0200523D1B3
:1058700040F23A538363019A130203F47F0343EA2D
:105880000263110A01F47F410B4343EA12633B6058
:10589000009A130203F47F0343EA0263110A01F43E
:1058A0007F410B4343EA12637B609BE708258563D6
:1058B00098E70225856395E72025856392E74FF0F9
:1058C00000458FE710B582B0044600210091019198
:1058D000006801F0EFF810F0007F13D16946204610
:1058E000FFF770FF80B9019B13F4802F0ED0216D5C
:1058F0000904206801F05AFA30B90221206801F049
:105900006DFA01E04FF4006002B010BD4FF080600E
:10591000FAE710B582B004460021009101910068B9
:1059200001F0C8F810F0007F13D169462046FFF758
:1059300049FF80B9019B13F4803F0ED0216D09040B
:10594000206801F033FA30B90021206801F046FAEE
:1059500001E04FF4006002B010BD4FF08060FAE744
:1059600070B581B104460E46016D0904006801F06E
:1059700065FA054608B1284670BD0021206801F08F
:1059800099F83060F7E74FF00065F4E72DE9F04F44
:1059900087B005460C4616469B46DDF840A0FCF74E
:1059A000D9FE002C36D0814695F83470FFB2012F15
:1059B00040F005810023AB6306EB0B03EA6D9342D5
:1059C0002ED8032385F834302B680022DA626B6C02
:1059D000012B00D076024FF0FF3300934FEA4B23A8
:1059E0000193902302930223039300230493012342
:1059F00005936946286801F060F8BBF1010F14D9DE
:105A000002232B633146286801F056F9A0B9DDF86E
:105A1000048038E0AB6B43F00063AB630127D3E055
:105A2000AB6B43F00073AB63CEE001232B633146D5
:105A3000286801F029F9E9E72B68654A9A63AB6B9E
:105A40000343AB63012385F8343000232B63BBE0B1
:105A5000286801F00AF82070C0F307236370C0F3D0
:105A60000743A370000EE0700434A8F10408013667
:105A7000072EEDD9FCF76EFEA0EB0900504510D2C1
:105A8000BAF1000F0DD02868466B40F22A331E4051
:105A900015D1436B13F4004FECD0B8F1000FE9D0EF
:105AA000E6E72B684A4A9A63AB6B43F00043AB636B
:105AB000012385F8343000232B63032784E0436BF4
:105AC00013F4807F05D0BBF1010F02D96B6C032B5F
:105AD00038D12B685A6B12F0080F44D15A6B12F070
